{
  "_format": "hh-sol-artifact-1",
  "contractName": "DappBnb",
  "sourceName": "contracts/DappBnb.sol",
  "abi": [
    {
      "inputs": [
        {
          "internalType": "uint256",
          "name": "_taxPercent",
          "type": "uint256"
        },
        {
          "internalType": "uint256",
          "name": "_securityFee",
          "type": "uint256"
        }
      ],
      "stateMutability": "nonpayable",
      "type": "constructor"
    },
    {
      "anonymous": false,
      "inputs": [
        {
          "indexed": true,
          "internalType": "address",
          "name": "previousOwner",
          "type": "address"
        },
        {
          "indexed": true,
          "internalType": "address",
          "name": "newOwner",
          "type": "address"
        }
      ],
      "name": "OwnershipTransferred",
      "type": "event"
    },
    {
      "inputs": [
        {
          "internalType": "uint256",
          "name": "aid",
          "type": "uint256"
        },
        {
          "internalType": "string",
          "name": "reviewText",
          "type": "string"
        },
        {
          "internalType": "uint256",
          "name": "rating",
          "type": "uint256"
        }
      ],
      "name": "addReview",
      "outputs": [],
      "stateMutability": "nonpayable",
      "type": "function"
    },
    {
      "inputs": [
        {
          "internalType": "uint256",
          "name": "aid",
          "type": "uint256"
        },
        {
          "internalType": "uint256",
          "name": "purchaseId",
          "type": "uint256"
        }
      ],
      "name": "approveProduct",
      "outputs": [],
      "stateMutability": "nonpayable",
      "type": "function"
    },
    {
      "inputs": [
        {
          "internalType": "uint256",
          "name": "aid",
          "type": "uint256"
        },
        {
          "internalType": "uint256[]",
          "name": "dates",
          "type": "uint256[]"
        }
      ],
      "name": "buyProduct",
      "outputs": [],
      "stateMutability": "payable",
      "type": "function"
    },
    {
      "inputs": [
        {
          "internalType": "uint256",
          "name": "aid",
          "type": "uint256"
        },
        {
          "internalType": "uint256",
          "name": "purchaseId",
          "type": "uint256"
        }
      ],
      "name": "claimFunds",
      "outputs": [],
      "stateMutability": "nonpayable",
      "type": "function"
    },
    {
      "inputs": [
        {
          "internalType": "string",
          "name": "name",
          "type": "string"
        },
        {
          "internalType": "string",
          "name": "description",
          "type": "string"
        },
        {
          "internalType": "string",
          "name": "location",
          "type": "string"
        },
        {
          "internalType": "string",
          "name": "images",
          "type": "string"
        },
        {
          "internalType": "uint256",
          "name": "listings",
          "type": "uint256"
        },
        {
          "internalType": "uint256",
          "name": "price",
          "type": "uint256"
        },
        {
          "internalType": "string",
          "name": "category",
          "type": "string"
        }
      ],
      "name": "createProduct",
      "outputs": [],
      "stateMutability": "nonpayable",
      "type": "function"
    },
    {
      "inputs": [
        {
          "internalType": "uint256",
          "name": "id",
          "type": "uint256"
        }
      ],
      "name": "deleteProduct",
      "outputs": [],
      "stateMutability": "nonpayable",
      "type": "function"
    },
    {
      "inputs": [
        {
          "internalType": "uint256",
          "name": "id",
          "type": "uint256"
        }
      ],
      "name": "getProduct",
      "outputs": [
        {
          "components": [
            {
              "internalType": "uint256",
              "name": "id",
              "type": "uint256"
            },
            {
              "internalType": "string",
              "name": "name",
              "type": "string"
            },
            {
              "internalType": "string",
              "name": "description",
              "type": "string"
            },
            {
              "internalType": "string",
              "name": "location",
              "type": "string"
            },
            {
              "internalType": "string",
              "name": "images",
              "type": "string"
            },
            {
              "internalType": "uint256",
              "name": "listings",
              "type": "uint256"
            },
            {
              "internalType": "uint256",
              "name": "price",
              "type": "uint256"
            },
            {
              "internalType": "string",
              "name": "category",
              "type": "string"
            },
            {
              "internalType": "address",
              "name": "owner",
              "type": "address"
            },
            {
              "internalType": "bool",
              "name": "purchased",
              "type": "bool"
            },
            {
              "internalType": "bool",
              "name": "deleted",
              "type": "bool"
            },
            {
              "internalType": "uint256",
              "name": "timestamp",
              "type": "uint256"
            }
          ],
          "internalType": "struct DappBnb.ProductStruct",
          "name": "",
          "type": "tuple"
        }
      ],
      "stateMutability": "view",
      "type": "function"
    },
    {
      "inputs": [],
      "name": "getProducts",
      "outputs": [
        {
          "components": [
            {
              "internalType": "uint256",
              "name": "id",
              "type": "uint256"
            },
            {
              "internalType": "string",
              "name": "name",
              "type": "string"
            },
            {
              "internalType": "string",
              "name": "description",
              "type": "string"
            },
            {
              "internalType": "string",
              "name": "location",
              "type": "string"
            },
            {
              "internalType": "string",
              "name": "images",
              "type": "string"
            },
            {
              "internalType": "uint256",
              "name": "listings",
              "type": "uint256"
            },
            {
              "internalType": "uint256",
              "name": "price",
              "type": "uint256"
            },
            {
              "internalType": "string",
              "name": "category",
              "type": "string"
            },
            {
              "internalType": "address",
              "name": "owner",
              "type": "address"
            },
            {
              "internalType": "bool",
              "name": "purchased",
              "type": "bool"
            },
            {
              "internalType": "bool",
              "name": "deleted",
              "type": "bool"
            },
            {
              "internalType": "uint256",
              "name": "timestamp",
              "type": "uint256"
            }
          ],
          "internalType": "struct DappBnb.ProductStruct[]",
          "name": "Products",
          "type": "tuple[]"
        }
      ],
      "stateMutability": "view",
      "type": "function"
    },
    {
      "inputs": [
        {
          "internalType": "uint256",
          "name": "aid",
          "type": "uint256"
        },
        {
          "internalType": "uint256",
          "name": "purchaseId",
          "type": "uint256"
        }
      ],
      "name": "getPurchase",
      "outputs": [
        {
          "components": [
            {
              "internalType": "uint256",
              "name": "id",
              "type": "uint256"
            },
            {
              "internalType": "uint256",
              "name": "aid",
              "type": "uint256"
            },
            {
              "internalType": "address",
              "name": "tenant",
              "type": "address"
            },
            {
              "internalType": "uint256",
              "name": "date",
              "type": "uint256"
            },
            {
              "internalType": "uint256",
              "name": "price",
              "type": "uint256"
            },
            {
              "internalType": "bool",
              "name": "checked",
              "type": "bool"
            },
            {
              "internalType": "bool",
              "name": "cancelled",
              "type": "bool"
            }
          ],
          "internalType": "struct DappBnb.PurchaseStruct",
          "name": "",
          "type": "tuple"
        }
      ],
      "stateMutability": "view",
      "type": "function"
    },
    {
      "inputs": [
        {
          "internalType": "uint256",
          "name": "aid",
          "type": "uint256"
        }
      ],
      "name": "getPurchases",
      "outputs": [
        {
          "components": [
            {
              "internalType": "uint256",
              "name": "id",
              "type": "uint256"
            },
            {
              "internalType": "uint256",
              "name": "aid",
              "type": "uint256"
            },
            {
              "internalType": "address",
              "name": "tenant",
              "type": "address"
            },
            {
              "internalType": "uint256",
              "name": "date",
              "type": "uint256"
            },
            {
              "internalType": "uint256",
              "name": "price",
              "type": "uint256"
            },
            {
              "internalType": "bool",
              "name": "checked",
              "type": "bool"
            },
            {
              "internalType": "bool",
              "name": "cancelled",
              "type": "bool"
            }
          ],
          "internalType": "struct DappBnb.PurchaseStruct[]",
          "name": "",
          "type": "tuple[]"
        }
      ],
      "stateMutability": "view",
      "type": "function"
    },
    {
      "inputs": [
        {
          "internalType": "uint256",
          "name": "aid",
          "type": "uint256"
        }
      ],
      "name": "getQualifiedReviewers",
      "outputs": [
        {
          "internalType": "address[]",
          "name": "Tenants",
          "type": "address[]"
        }
      ],
      "stateMutability": "view",
      "type": "function"
    },
    {
      "inputs": [
        {
          "internalType": "uint256",
          "name": "aid",
          "type": "uint256"
        }
      ],
      "name": "getReviews",
      "outputs": [
        {
          "components": [
            {
              "internalType": "uint256",
              "name": "id",
              "type": "uint256"
            },
            {
              "internalType": "uint256",
              "name": "aid",
              "type": "uint256"
            },
            {
              "internalType": "string",
              "name": "reviewText",
              "type": "string"
            },
            {
              "internalType": "uint256",
              "name": "rating",
              "type": "uint256"
            },
            {
              "internalType": "uint256",
              "name": "timestamp",
              "type": "uint256"
            },
            {
              "internalType": "address",
              "name": "owner",
              "type": "address"
            }
          ],
          "internalType": "struct DappBnb.ReviewStruct[]",
          "name": "",
          "type": "tuple[]"
        }
      ],
      "stateMutability": "view",
      "type": "function"
    },
    {
      "inputs": [
        {
          "internalType": "uint256",
          "name": "aid",
          "type": "uint256"
        }
      ],
      "name": "getUnavailableDates",
      "outputs": [
        {
          "internalType": "uint256[]",
          "name": "",
          "type": "uint256[]"
        }
      ],
      "stateMutability": "view",
      "type": "function"
    },
    {
      "inputs": [],
      "name": "owner",
      "outputs": [
        {
          "internalType": "address",
          "name": "",
          "type": "address"
        }
      ],
      "stateMutability": "view",
      "type": "function"
    },
    {
      "inputs": [
        {
          "internalType": "uint256",
          "name": "aid",
          "type": "uint256"
        },
        {
          "internalType": "uint256",
          "name": "purchaseId",
          "type": "uint256"
        }
      ],
      "name": "refundPurchase",
      "outputs": [],
      "stateMutability": "nonpayable",
      "type": "function"
    },
    {
      "inputs": [],
      "name": "renounceOwnership",
      "outputs": [],
      "stateMutability": "nonpayable",
      "type": "function"
    },
    {
      "inputs": [],
      "name": "securityFee",
      "outputs": [
        {
          "internalType": "uint256",
          "name": "",
          "type": "uint256"
        }
      ],
      "stateMutability": "view",
      "type": "function"
    },
    {
      "inputs": [],
      "name": "taxPercent",
      "outputs": [
        {
          "internalType": "uint256",
          "name": "",
          "type": "uint256"
        }
      ],
      "stateMutability": "view",
      "type": "function"
    },
    {
      "inputs": [
        {
          "internalType": "uint256",
          "name": "productId",
          "type": "uint256"
        }
      ],
      "name": "tenantPurchased",
      "outputs": [
        {
          "internalType": "bool",
          "name": "",
          "type": "bool"
        }
      ],
      "stateMutability": "view",
      "type": "function"
    },
    {
      "inputs": [
        {
          "internalType": "address",
          "name": "newOwner",
          "type": "address"
        }
      ],
      "name": "transferOwnership",
      "outputs": [],
      "stateMutability": "nonpayable",
      "type": "function"
    },
    {
      "inputs": [
        {
          "internalType": "uint256",
          "name": "id",
          "type": "uint256"
        },
        {
          "internalType": "string",
          "name": "name",
          "type": "string"
        },
        {
          "internalType": "string",
          "name": "description",
          "type": "string"
        },
        {
          "internalType": "string",
          "name": "location",
          "type": "string"
        },
        {
          "internalType": "string",
          "name": "images",
          "type": "string"
        },
        {
          "internalType": "uint256",
          "name": "listings",
          "type": "uint256"
        },
        {
          "internalType": "uint256",
          "name": "price",
          "type": "uint256"
        },
        {
          "internalType": "string",
          "name": "category",
          "type": "string"
        }
      ],
      "name": "updateProduct",
      "outputs": [],
      "stateMutability": "nonpayable",
      "type": "function"
    }
  ],
  "bytecode": "0x60806040523480156200001157600080fd5b506040516200372d3803806200372d8339810160408190526200003491620000a2565b6200003f3362000052565b60018055600491909155600355620000c7565b600080546001600160a01b038381166001600160a01b0319831681178455604051919092169283917f8be0079c531659141344cd1fd0a4f28419497f9722a3daafe3b4186f6b6457e09190a35050565b60008060408385031215620000b657600080fd5b505080516020909101519092909150565b61365680620000d76000396000f3fe60806040526004361061012a5760003560e01c80639c057846116100ab578063c29b2f201161006f578063c29b2f201461034f578063c8c21c5914610371578063d68e1302146103bc578063db2f80b7146103d2578063ed90c7b7146103ff578063f2fde38b1461041f57600080fd5b80639c057846146102a25780639d4a2255146102c2578063ad3df6bb146102ef578063b9db15b414610302578063ba545d621461032f57600080fd5b80636f629ed5116100f25780636f629ed5146101f4578063715018a6146102215780637541f41c146102365780638da5cb5b1461025a57806394cdf85f1461028257600080fd5b8063010b58ee1461012f5780630bb9ce33146101515780631ed7bf1c1461018757806336b970b4146101a75780633bc70184146101c7575b600080fd5b34801561013b57600080fd5b5061014f61014a366004612c72565b61043f565b005b34801561015d57600080fd5b5061017161016c366004612c94565b6105a5565b60405161017e9190612cad565b60405180910390f35b34801561019357600080fd5b5061014f6101a2366004612c72565b61074e565b3480156101b357600080fd5b5061014f6101c2366004612db1565b610a96565b3480156101d357600080fd5b506101e76101e2366004612c72565b6111fc565b60405161017e9190612eee565b34801561020057600080fd5b5061021461020f366004612c94565b6112a0565b60405161017e9190612efc565b34801561022d57600080fd5b5061014f611366565b34801561024257600080fd5b5061024c60045481565b60405190815260200161017e565b34801561026657600080fd5b506000546040516001600160a01b03909116815260200161017e565b34801561028e57600080fd5b5061014f61029d366004612f3e565b61137a565b3480156102ae57600080fd5b5061014f6102bd366004612c72565b6115f4565b3480156102ce57600080fd5b506102e26102dd366004612c94565b6117f9565b60405161017e9190612fd4565b61014f6102fd36600461307c565b611933565b34801561030e57600080fd5b5061032261031d366004612c94565b611c63565b60405161017e9190613217565b34801561033b57600080fd5b5061014f61034a366004613231565b611fc9565b34801561035b57600080fd5b5061036461235c565b60405161017e9190613316565b34801561037d57600080fd5b506103ac61038c366004612c94565b336000908152600b60209081526040808320938352929052205460ff1690565b604051901515815260200161017e565b3480156103c857600080fd5b5061024c60035481565b3480156103de57600080fd5b506103f26103ed366004612c94565b6127c9565b60405161017e9190613378565b34801561040b57600080fd5b5061014f61041a366004612c94565b61282b565b34801561042b57600080fd5b5061014f61043a3660046133b0565b612916565b6000828152600560205260409020600801546001600160a01b031633146104a35760405162461bcd60e51b8152602060048201526013602482015272556e617574686f72697a656420656e7469747960681b60448201526064015b60405180910390fd5b60008281526006602052604090208054829081106104c3576104c36133d9565b600091825260209091206005600690920201015460ff16156104f75760405162461bcd60e51b815260040161049a906133ef565b6000828152600660205260408120805483908110610517576105176133d9565b9060005260206000209060060201600401549050600060646004548361053d919061344a565b6105479190613461565b600085815260056020526040902060080154909150610578906001600160a01b03166105738385613483565b61298f565b61059361058d6000546001600160a01b031690565b8261298f565b61059f3360035461298f565b50505050565b60606000805b60008481526006602052604090205481101561061d5760008481526006602052604090208054829081106105e1576105e16133d9565b600091825260209091206005600690920201015460ff161561060b578161060781613496565b9250505b8061061581613496565b9150506105ab565b508067ffffffffffffffff81111561063757610637612cfa565b604051908082528060200260200182016040528015610660578160200160208202803683370190505b5091506000805b60008581526006602052604090205481101561074657600085815260066020526040902080548290811061069d5761069d6133d9565b600091825260209091206005600690920201015460ff16156107345760008581526006602052604090208054829081106106d9576106d96133d9565b60009182526020909120600260069092020101546001600160a01b0316848361070181613496565b945081518110610713576107136133d9565b60200260200101906001600160a01b031690816001600160a01b0316815250505b8061073e81613496565b915050610667565b505050919050565b6107566129f4565b6000828152600660205260408120805483908110610776576107766133d9565b60009182526020918290206040805160e08101825260069093029091018054835260018101549383019390935260028301546001600160a01b031690820152600382015460608201526004820154608082015260059091015460ff80821615801560a085015261010090920416151560c08301529091506108095760405162461bcd60e51b815260040161049a906133ef565b6000838152600a602090815260408083206060850151845290915290205460ff166108765760405162461bcd60e51b815260206004820152601e60248201527f446964206e6f74207075726368617365206f6e20746869732064617465210000604482015260640161049a565b6000546001600160a01b031633146108e45780604001516001600160a01b0316336001600160a01b0316146108e45760405162461bcd60e51b8152602060048201526014602482015273556e617574686f72697a65642074656e616e742160601b604482015260640161049a565b600083815260066020526040902080546001919084908110610908576109086133d9565b6000918252602080832060056006909302019190910180549315156101000261ff001990941693909317909255848152600a82526040808220606085015183528352808220805460ff1916905585825260099092529081205461096d90600190613483565b60008581526009602052604081208054929350909183908110610992576109926133d9565b90600052602060002001549050806009600087815260200190815260200160002085815481106109c4576109c46133d9565b9060005260206000200181905550600960008681526020019081526020016000208054806109f4576109f46134af565b60019003818190600052602060002001600090559055600060646003548560800151610a20919061344a565b610a2a9190613461565b90506000610a39600283613461565b600088815260056020526040902060080154909150610a61906001600160a01b03168261298f565b610a7661058d6000546001600160a01b031690565b610a8433866080015161298f565b5050505050610a9260018055565b5050565b60008881526008602052604090205460ff161515600114610aed5760405162461bcd60e51b8152602060048201526011602482015270141c9bd91d58dd081b9bdd08199bdd5b99607a1b604482015260640161049a565b6000888152600560205260409020600801546001600160a01b03163314610b615760405162461bcd60e51b815260206004820152602260248201527f556e617574686f72697a656420706572736f6e6e656c2c206f776e6572206f6e6044820152616c7960f01b606482015260840161049a565b6000875111610ba95760405162461bcd60e51b81526020600482015260146024820152734e616d652063616e6e6f7420626520656d70747960601b604482015260640161049a565b6000865111610bfa5760405162461bcd60e51b815260206004820152601b60248201527f4465736372697074696f6e2063616e6e6f7420626520656d7074790000000000604482015260640161049a565b6000855111610c465760405162461bcd60e51b81526020600482015260186024820152774c6f636174696f6e2063616e6e6f7420626520656d70747960401b604482015260640161049a565b6000845111610c905760405162461bcd60e51b8152602060048201526016602482015275496d616765732063616e6e6f7420626520656d70747960501b604482015260640161049a565b60008311610cda5760405162461bcd60e51b81526020600482015260176024820152764c697374696e67732063616e6e6f74206265207a65726f60481b604482015260640161049a565b60008211610d215760405162461bcd60e51b815260206004820152601460248201527350726963652063616e6e6f74206265207a65726f60601b604482015260640161049a565b6000815111610d6d5760405162461bcd60e51b815260206004820152601860248201527743617465676f72792063616e6e6f7420626520656d70747960401b604482015260640161049a565b6000600560008a81526020019081526020016000206040518061018001604052908160008201548152602001600182018054610da8906134c5565b80601f0160208091040260200160405190810160405280929190818152602001828054610dd4906134c5565b8015610e215780601f10610df657610100808354040283529160200191610e21565b820191906000526020600020905b815481529060010190602001808311610e0457829003601f168201915b50505050508152602001600282018054610e3a906134c5565b80601f0160208091040260200160405190810160405280929190818152602001828054610e66906134c5565b8015610eb35780601f10610e8857610100808354040283529160200191610eb3565b820191906000526020600020905b815481529060010190602001808311610e9657829003601f168201915b50505050508152602001600382018054610ecc906134c5565b80601f0160208091040260200160405190810160405280929190818152602001828054610ef8906134c5565b8015610f455780601f10610f1a57610100808354040283529160200191610f45565b820191906000526020600020905b815481529060010190602001808311610f2857829003601f168201915b50505050508152602001600482018054610f5e906134c5565b80601f0160208091040260200160405190810160405280929190818152602001828054610f8a906134c5565b8015610fd75780601f10610fac57610100808354040283529160200191610fd7565b820191906000526020600020905b815481529060010190602001808311610fba57829003601f168201915b505050505081526020016005820154815260200160068201548152602001600782018054611004906134c5565b80601f0160208091040260200160405190810160405280929190818152602001828054611030906134c5565b801561107d5780601f106110525761010080835404028352916020019161107d565b820191906000526020600020905b81548152906001019060200180831161106057829003601f168201915b505050918352505060088201546001600160a01b03811660208084019190915260ff600160a01b830481161515604080860191909152600160a81b9093041615156060808501919091526009909401546080938401528481018d81528583018d90529385018b905291840189905260a0840188905260c0840187905260e0840186905260008d81526005909252902082518155905191925082916001820190611126908261354d565b506040820151600282019061113b908261354d565b5060608201516003820190611150908261354d565b5060808201516004820190611165908261354d565b5060a0820151600582015560c0820151600682015560e0820151600782019061118e908261354d565b506101008201516008820180546101208501516101408601511515600160a81b0260ff60a81b19911515600160a01b026001600160a81b03199093166001600160a01b0390951694909417919091171691909117905561016090910151600990910155505050505050505050565b611204612bba565b6000838152600660205260409020805483908110611224576112246133d9565b60009182526020918290206040805160e08101825260069093029091018054835260018101549383019390935260028301546001600160a01b031690820152600382015460608201526004820154608082015260059091015460ff808216151560a084015261010090910416151560c082015290505b92915050565b606060066000838152602001908152602001600020805480602002602001604051908101604052809291908181526020016000905b8282101561135b5760008481526020908190206040805160e08101825260068602909201805483526001808201548486015260028201546001600160a01b03169284019290925260038101546060840152600481015460808401526005015460ff808216151560a085015261010090910416151560c083015290835290920191016112d5565b505050509050919050565b61136e612a4d565b6113786000612aa7565b565b60008381526008602052604090205460ff166113d05760405162461bcd60e51b815260206004820152601560248201527450726f64756374206e6f7420617661696c61626c6560581b604482015260640161049a565b336000908152600b6020908152604080832086845290915290205460ff1661143a5760405162461bcd60e51b815260206004820152601c60248201527f5075726368617365206669727374206265666f72652072657669657700000000604482015260640161049a565b600082511161148b5760405162461bcd60e51b815260206004820152601b60248201527f52657669657720746578742063616e6e6f7420626520656d7074790000000000604482015260640161049a565b6001811015801561149d575060058111155b6114e95760405162461bcd60e51b815260206004820152601e60248201527f526174696e67206d757374206265206265747765656e203120616e6420350000604482015260640161049a565b61152b6040518060c00160405280600081526020016000815260200160608152602001600081526020016000815260200160006001600160a01b031681525090565b60208082018590526000858152600790915260409081902054825281018390526060810182905261155a612af7565b60808201523360a08201526000848152600760209081526040808320805460018181018355918552938390208551600690950201938455918401519183019190915582015182919060028201906115b1908261354d565b50606082015160038201556080820151600482015560a090910151600590910180546001600160a01b0319166001600160a01b0390921691909117905550505050565b6000828152600660205260408120805483908110611614576116146133d9565b60009182526020918290206040805160e08101825260069093029091018054835260018101549383019390935260028301546001600160a01b0316908201819052600383015460608301526004830154608083015260059092015460ff808216151560a084015261010090910416151560c0820152915033146116d05760405162461bcd60e51b8152602060048201526014602482015273556e617574686f72697a65642074656e616e742160601b604482015260640161049a565b8060a00151156116f25760405162461bcd60e51b815260040161049a906133ef565b600083815260066020526040902080546001919084908110611716576117166133d9565b60009182526020822060069190910201600501805460ff191692151592909217909155600454608083015160649161174d9161344a565b6117579190613461565b905060006064600354846080015161176f919061344a565b6117799190613461565b336000908152600b602090815260408083208984528252808320805460ff19166001179055600590915290206008015460808501519192506117cd916001600160a01b039190911690610573908590613483565b6117e86117e26000546001600160a01b031690565b8361298f565b6117f2338261298f565b5050505050565b606060076000838152602001908152602001600020805480602002602001604051908101604052809291908181526020016000905b8282101561135b57838290600052602060002090600602016040518060c00160405290816000820154815260200160018201548152602001600282018054611875906134c5565b80601f01602080910402602001604051908101604052809291908181526020018280546118a1906134c5565b80156118ee5780601f106118c3576101008083540402835291602001916118ee565b820191906000526020600020905b8154815290600101906020018083116118d157829003601f168201915b50505091835250506003820154602080830191909152600483015460408301526005909201546001600160a01b0316606090910152908252600192909201910161182e565b60008281526008602052604090205460ff166119865760405162461bcd60e51b815260206004820152601260248201527150726f64756374206e6f7420666f756e642160701b604482015260640161049a565b6003548151600084815260056020526040902060060154606492916119aa9161344a565b6119b4919061344a565b6119be9190613461565b81516000848152600560205260409020600601546119dc919061344a565b6119e6919061360d565b341015611a2a5760405162461bcd60e51b8152602060048201526012602482015271496e73756666696369656e742066756e642160701b604482015260640161049a565b611a348282612b16565b611a8a5760405162461bcd60e51b815260206004820152602160248201527f507572636861736564206461746520666f756e6420616d6f6e672064617465736044820152602160f81b606482015260840161049a565b60005b8151811015611c3657611a9e612bba565b60208082018590526000858152600690915260409081902054825233908201528251839083908110611ad257611ad26133d9565b60209081029190910181015160608301908152600086815260058084526040808320600690810154608088019081528a85528187528285208054600181810183559187528887208a51919094029093019283558888015183820155838901516002840180546001600160a01b039092166001600160a01b03199092169190911790559551600383015551600482015560a08701519201805460c088015115156101000261ff00199415159490941661ffff199091161792909217909155878252600a909352918220855191929091869086908110611bb257611bb26133d9565b6020026020010151815260200190815260200160002060006101000a81548160ff02191690831515021790555060096000858152602001908152602001600020838381518110611c0457611c046133d9565b602090810291909101810151825460018101845560009384529190922001555080611c2e81613496565b915050611a8d565b50805160008381526005602081905260408220018054909190611c5a908490613483565b90915550505050565b611c6b612c04565b600560008381526020019081526020016000206040518061018001604052908160008201548152602001600182018054611ca4906134c5565b80601f0160208091040260200160405190810160405280929190818152602001828054611cd0906134c5565b8015611d1d5780601f10611cf257610100808354040283529160200191611d1d565b820191906000526020600020905b815481529060010190602001808311611d0057829003601f168201915b50505050508152602001600282018054611d36906134c5565b80601f0160208091040260200160405190810160405280929190818152602001828054611d62906134c5565b8015611daf5780601f10611d8457610100808354040283529160200191611daf565b820191906000526020600020905b815481529060010190602001808311611d9257829003601f168201915b50505050508152602001600382018054611dc8906134c5565b80601f0160208091040260200160405190810160405280929190818152602001828054611df4906134c5565b8015611e415780601f10611e1657610100808354040283529160200191611e41565b820191906000526020600020905b815481529060010190602001808311611e2457829003601f168201915b50505050508152602001600482018054611e5a906134c5565b80601f0160208091040260200160405190810160405280929190818152602001828054611e86906134c5565b8015611ed35780601f10611ea857610100808354040283529160200191611ed3565b820191906000526020600020905b815481529060010190602001808311611eb657829003601f168201915b505050505081526020016005820154815260200160068201548152602001600782018054611f00906134c5565b80601f0160208091040260200160405190810160405280929190818152602001828054611f2c906134c5565b8015611f795780601f10611f4e57610100808354040283529160200191611f79565b820191906000526020600020905b815481529060010190602001808311611f5c57829003601f168201915b505050918352505060088201546001600160a01b038116602083015260ff600160a01b8204811615156040840152600160a81b909104161515606082015260099091015460809091015292915050565b60008751116120115760405162461bcd60e51b81526020600482015260146024820152734e616d652063616e6e6f7420626520656d70747960601b604482015260640161049a565b60008651116120625760405162461bcd60e51b815260206004820152601b60248201527f4465736372697074696f6e2063616e6e6f7420626520656d7074790000000000604482015260640161049a565b60008551116120ae5760405162461bcd60e51b81526020600482015260186024820152774c6f636174696f6e2063616e6e6f7420626520656d70747960401b604482015260640161049a565b60008451116120f85760405162461bcd60e51b8152602060048201526016602482015275496d616765732063616e6e6f7420626520656d70747960501b604482015260640161049a565b600083116121425760405162461bcd60e51b81526020600482015260176024820152764c697374696e67732063616e6e6f74206265207a65726f60481b604482015260640161049a565b600082116121895760405162461bcd60e51b815260206004820152601460248201527350726963652063616e6e6f74206265207a65726f60601b604482015260640161049a565b60008151116121d55760405162461bcd60e51b815260206004820152601860248201527743617465676f72792063616e6e6f7420626520656d70747960401b604482015260640161049a565b6121e3600280546001019055565b6121eb612c04565b60025481526020810188905260408101879052606081018690526080810185905260a0810184905260c0810183905260e0810182905233610100820152612230612af7565b61016082015280516000908152600860205260408120805460ff19166001179055819060059061225f60025490565b815260208082019290925260400160002082518155908201516001820190612287908261354d565b506040820151600282019061229c908261354d565b50606082015160038201906122b1908261354d565b50608082015160048201906122c6908261354d565b5060a0820151600582015560c0820151600682015560e082015160078201906122ef908261354d565b506101008201516008820180546101208501516101408601511515600160a81b0260ff60a81b19911515600160a01b026001600160a81b03199093166001600160a01b03909516949094179190911716919091179055610160909101516009909101555050505050505050565b6060600060015b60025481116123ac57600081815260056020526040902060080154600160a81b900460ff1661239a578161239681613496565b9250505b806123a481613496565b915050612363565b508067ffffffffffffffff8111156123c6576123c6612cfa565b6040519080825280602002602001820160405280156123ff57816020015b6123ec612c04565b8152602001906001900390816123e45790505b509150600060015b60025481116127c357600081815260056020526040902060080154600160a81b900460ff166127b157600560008281526020019081526020016000206040518061018001604052908160008201548152602001600182018054612469906134c5565b80601f0160208091040260200160405190810160405280929190818152602001828054612495906134c5565b80156124e25780601f106124b7576101008083540402835291602001916124e2565b820191906000526020600020905b8154815290600101906020018083116124c557829003601f168201915b505050505081526020016002820180546124fb906134c5565b80601f0160208091040260200160405190810160405280929190818152602001828054612527906134c5565b80156125745780601f1061254957610100808354040283529160200191612574565b820191906000526020600020905b81548152906001019060200180831161255757829003601f168201915b5050505050815260200160038201805461258d906134c5565b80601f01602080910402602001604051908101604052809291908181526020018280546125b9906134c5565b80156126065780601f106125db57610100808354040283529160200191612606565b820191906000526020600020905b8154815290600101906020018083116125e957829003601f168201915b5050505050815260200160048201805461261f906134c5565b80601f016020809104026020016040519081016040528092919081815260200182805461264b906134c5565b80156126985780601f1061266d57610100808354040283529160200191612698565b820191906000526020600020905b81548152906001019060200180831161267b57829003601f168201915b5050505050815260200160058201548152602001600682015481526020016007820180546126c5906134c5565b80601f01602080910402602001604051908101604052809291908181526020018280546126f1906134c5565b801561273e5780601f106127135761010080835404028352916020019161273e565b820191906000526020600020905b81548152906001019060200180831161272157829003601f168201915b505050918352505060088201546001600160a01b038116602083015260ff600160a01b8204811615156040840152600160a81b9091041615156060820152600990910154608090910152848361279381613496565b9450815181106127a5576127a56133d9565b60200260200101819052505b806127bb81613496565b915050612407565b50505090565b60008181526009602090815260409182902080548351818402810184019094528084526060939283018282801561281f57602002820191906000526020600020905b81548152602001906001019080831161280b575b50505050509050919050565b60008181526008602052604090205460ff1615156001146128825760405162461bcd60e51b8152602060048201526011602482015270141c9bd91d58dd081b9bdd08199bdd5b99607a1b604482015260640161049a565b6000818152600560205260409020600801546001600160a01b031633146128e15760405162461bcd60e51b8152602060048201526013602482015272556e617574686f72697a656420656e7469747960681b604482015260640161049a565b6000908152600860208181526040808420805460ff19169055600590915290912001805460ff60a81b1916600160a81b179055565b61291e612a4d565b6001600160a01b0381166129835760405162461bcd60e51b815260206004820152602660248201527f4f776e61626c653a206e6577206f776e657220697320746865207a65726f206160448201526564647265737360d01b606482015260840161049a565b61298c81612aa7565b50565b6000826001600160a01b03168260405160006040518083038185875af1925050503d80600081146129dc576040519150601f19603f3d011682016040523d82523d6000602084013e6129e1565b606091505b50509050806129ef57600080fd5b505050565b600260015403612a465760405162461bcd60e51b815260206004820152601f60248201527f5265656e7472616e637947756172643a207265656e7472616e742063616c6c00604482015260640161049a565b6002600155565b6000546001600160a01b031633146113785760405162461bcd60e51b815260206004820181905260248201527f4f776e61626c653a2063616c6c6572206973206e6f7420746865206f776e6572604482015260640161049a565b600080546001600160a01b038381166001600160a01b0319831681178455604051919092169283917f8be0079c531659141344cd1fd0a4f28419497f9722a3daafe3b4186f6b6457e09190a35050565b6000612b05426103e861344a565b612b11906103e861360d565b905090565b60006001815b8351811015612bb25760005b600086815260096020526040902054811015612b9f576000868152600960205260409020805482908110612b5e57612b5e6133d9565b9060005260206000200154858381518110612b7b57612b7b6133d9565b602002602001015103612b8d57600092505b80612b9781613496565b915050612b28565b5080612baa81613496565b915050612b1c565b509392505050565b6040518060e00160405280600081526020016000815260200160006001600160a01b0316815260200160008152602001600081526020016000151581526020016000151581525090565b604051806101800160405280600081526020016060815260200160608152602001606081526020016060815260200160008152602001600081526020016060815260200160006001600160a01b03168152602001600015158152602001600015158152602001600081525090565b60008060408385031215612c8557600080fd5b50508035926020909101359150565b600060208284031215612ca657600080fd5b5035919050565b6020808252825182820181905260009190848201906040850190845b81811015612cee5783516001600160a01b031683529284019291840191600101612cc9565b50909695505050505050565b634e487b7160e01b600052604160045260246000fd5b604051601f8201601f1916810167ffffffffffffffff81118282101715612d3957612d39612cfa565b604052919050565b600082601f830112612d5257600080fd5b813567ffffffffffffffff811115612d6c57612d6c612cfa565b612d7f601f8201601f1916602001612d10565b818152846020838601011115612d9457600080fd5b816020850160208301376000918101602001919091529392505050565b600080600080600080600080610100898b031215612dce57600080fd5b88359750602089013567ffffffffffffffff80821115612ded57600080fd5b612df98c838d01612d41565b985060408b0135915080821115612e0f57600080fd5b612e1b8c838d01612d41565b975060608b0135915080821115612e3157600080fd5b612e3d8c838d01612d41565b965060808b0135915080821115612e5357600080fd5b612e5f8c838d01612d41565b955060a08b0135945060c08b0135935060e08b0135915080821115612e8357600080fd5b50612e908b828c01612d41565b9150509295985092959890939650565b80518252602080820151908301526040808201516001600160a01b031690830152606080820151908301526080808201519083015260a08082015115159083015260c0908101511515910152565b60e0810161129a8284612ea0565b6020808252825182820181905260009190848201906040850190845b81811015612cee57612f2b838551612ea0565b9284019260e09290920191600101612f18565b600080600060608486031215612f5357600080fd5b83359250602084013567ffffffffffffffff811115612f7157600080fd5b612f7d86828701612d41565b925050604084013590509250925092565b6000815180845260005b81811015612fb457602081850181015186830182015201612f98565b506000602082860101526020601f19601f83011685010191505092915050565b60006020808301818452808551808352604092508286019150828160051b87010184880160005b8381101561306e57603f19898403018552815160c081518552888201518986015287820151818987015261303182870182612f8e565b606084810151908801526080808501519088015260a0938401516001600160a01b0316939096019290925250509386019390860190600101612ffb565b509098975050505050505050565b6000806040838503121561308f57600080fd5b8235915060208084013567ffffffffffffffff808211156130af57600080fd5b818601915086601f8301126130c357600080fd5b8135818111156130d5576130d5612cfa565b8060051b91506130e6848301612d10565b818152918301840191848101908984111561310057600080fd5b938501935b8385101561311e57843582529385019390850190613105565b8096505050505050509250929050565b600061018082518452602083015181602086015261314e82860182612f8e565b915050604083015184820360408601526131688282612f8e565b915050606083015184820360608601526131828282612f8e565b9150506080830151848203608086015261319c8282612f8e565b91505060a083015160a085015260c083015160c085015260e083015184820360e08601526131ca8282612f8e565b915050610100808401516131e8828701826001600160a01b03169052565b505061012083810151151590850152610140808401511515908501526101609283015192909301919091525090565b60208152600061322a602083018461312e565b9392505050565b600080600080600080600060e0888a03121561324c57600080fd5b873567ffffffffffffffff8082111561326457600080fd5b6132708b838c01612d41565b985060208a013591508082111561328657600080fd5b6132928b838c01612d41565b975060408a01359150808211156132a857600080fd5b6132b48b838c01612d41565b965060608a01359150808211156132ca57600080fd5b6132d68b838c01612d41565b955060808a0135945060a08a0135935060c08a01359150808211156132fa57600080fd5b506133078a828b01612d41565b91505092959891949750929550565b6000602080830181845280855180835260408601915060408160051b870101925083870160005b8281101561336b57603f1988860301845261335985835161312e565b9450928501929085019060010161333d565b5092979650505050505050565b6020808252825182820181905260009190848201906040850190845b81811015612cee57835183529284019291840191600101613394565b6000602082840312156133c257600080fd5b81356001600160a01b038116811461322a57600080fd5b634e487b7160e01b600052603260045260246000fd5b60208082526025908201527f50726f6475637420616c726561647920636865636b6564206f6e207468697320604082015264646174652160d81b606082015260800190565b634e487b7160e01b600052601160045260246000fd5b808202811582820484141761129a5761129a613434565b60008261347e57634e487b7160e01b600052601260045260246000fd5b500490565b8181038181111561129a5761129a613434565b6000600182016134a8576134a8613434565b5060010190565b634e487b7160e01b600052603160045260246000fd5b600181811c908216806134d957607f821691505b6020821081036134f957634e487b7160e01b600052602260045260246000fd5b50919050565b601f8211156129ef57600081815260208120601f850160051c810160208610156135265750805b601f850160051c820191505b8181101561354557828155600101613532565b505050505050565b815167ffffffffffffffff81111561356757613567612cfa565b61357b8161357584546134c5565b846134ff565b602080601f8311600181146135b057600084156135985750858301515b600019600386901b1c1916600185901b178555613545565b600085815260208120601f198616915b828110156135df578886015182559484019460019091019084016135c0565b50858210156135fd5787850151600019600388901b60f8161c191681555b5050505050600190811b01905550565b8082018082111561129a5761129a61343456fea26469706673582212205da2d94fbf7317d3a085cf48c00683a193bc82d765ca704141fd93c4170f3f0b64736f6c63430008130033",
  "linkReferences": {},
  "deployedLinkReferences": {}
}